:020000041000EA
:4000000000400208230100100D00000085010010000000000000000000000000000000000000000000000000000000008101001000000000000000008101001081010010E9
:400040008101001081010010810100108101001081010010810100108101001081010010810100108101001081010010810100108101001081010010810100108101001060
:400080008101001081010010810100108101001081010010810100108101001081010010810100108101001081010010810100108101001081010010810100108101001020
:4000C00010B5064C2378002B07D1054B002B02D0044800E000BF0123237010BD3C06000800000000242F0010084B10B5002B03D00749084800E000BF07480368002B00D1D7
:4001000010BD064B002BFBD09847F9E70000000040060008242F0010E8000008000000007047FFF7FDFF72B60F4C104DAC4209DA21686268A368043B02DBC858D050FAE756
:400140000C34F3E70A490B4A0020521A02DD043A8850FCDC084809490860BFF34F8F00F009F900F01DF8FEE7282F0010402F00103C0600084C0800080000000808ED00E085
:40018000FEE7FEE700B504207146084202D0EFF3098001E0EFF30880043001F0B5FAFEE710B562B6034800F06BF9002001F0EAFCFEE7C0460000081010B5002001F020F8F6
:4001C00010BDC04670B56249E0239B00CB580F2213401A00D0329200525807210A40032A05D0042A06D0002A12D15A4814E05A4A106811E01A00C0329200554952581F2171
:400200000A40112A06D0132A04D0FA20C00103E0524801E080200002002B36D14C4BB222D2009A5801211140B125ED005A59120F032422405B591B0F1C4207D0444C635924
:400240001B0F03242340012B02D102E0012300E00023002B01D0002901D1032A4BD13C4BB022D2009D58AD03AD0B3D495958C904C90C9C58240E01231C40013401F0FCFD5C
:400280006843210001F0F8FD35E0012B33D1304BC822D2009A5801251540C024E4001A59120F03210A401B591B0F194207D028490B591B0F03210B40012B02D102E0012396
:4002C00000E00023002B01D0002D01D1032A12D11F4DC022D200AB587F210B40A958090A1F263140AC58240C3440584301F0C4FD210001F0C1FDE0239B00154AD3581B0907
:4003000003221340D840144C6060164B1D692D0AFC32154001351969090E013101F0ACFDA060290001F0A8FD0500E06020610E4BC0180E4901F0A0FD20750D4BE818FA212E
:40034000890001F099FDA061C003E06170BDC0460000264000127A00C000000800366E0184050000000021403F420F0040420F00E703000010B5284801F078FD274CB02201
:40038000D200A3585B005B08A350E0218900635830208343635080235B04A350204A214BE250A02292010433E250FF221E4BE25001F04AFDC0225200A35801218B43A350F0
:4003C00000F014FAFFF7FEFEB0235B055B78002B04D0B0235B055B78DBB200E02123212B03D1124B0022DA605A60114C22008021042000F0ABFC2000103000F03FFD0D4BFF
:400400001A685123D35C002B02D00B4800F0ACFD00F074FB10BDC0466C2E00100000264001000200840500008C050000E00023405806000848080008F01F00108023024A40
:40044000D3580320184070470000214010B501F0ECF9084980228C58074B2340074C23438B508823034AD358DB06FAD501F0E1F910BDC04600002140FCFF00000100FA0536
:4004800070B50500830504D0E821FF310F4801F00DF901F0CAF90400FFF7D0FF032801D1FFF7D4FF0A4AB0239B00D55080215058084B03400848034353508823044AD358C9
:4004C000DB06FAD5200001F0B4F970BD2420001000002140FCFF00000300FA05FEE7C04680221206054B1A60054A064B1A60064A064B1A60064A074B1A60704700001D41DA
:400500005020010000031D417000010044031D4101001180000E1F4110B50A00002101F040FD10BD10B501F033FD10BD30B587B09D49A022D2008B58032083438B509B4A13
:40054000116808688823CB58C31818689849084018601368186884241B59C01803681B021B0A80256D042B430360106805680359EB1818680140196013683E229A5C002ACC
:4005800006D08948E02189004258753CA24342503E229A5C002A06D08348E021890042583024A24342503E229B5C002B07D07E49E02292008B588020000603438B500021B9
:4005C000012000F04FFE0021022000F04BFE0021032000F047FE0021042000F043FE0021002000F03FFE01A8724903000A0032CA32C312CA12C300F063FE002802D0042042
:40060000FFF76CFF68496C4A8B588020000603438B506A4800F010FF002802D00420FFF75DFF614C664BE158664A0A40E250E158654A0A40E250E25880252D062A43E2504F
:40064000043BE158614A0A40E250E158604A0A40802189010A43E250E258802109020A43E2505C4A11685C4B0B40802149000B431360002001F0CAFB584BE2581543E550A3
:40068000E158012291430A43E2506421002001F053F8464B1B683F229A5C052A06D970229A5C01210A404E49986842509A6874215B5AD21851683E4B0B408C2189010B43CC
:4006C00053603A4B1B6873229A5C0321914070229A5C7220185C140084402143012002400A43802109060A438021C900986842509A6852583F229A5C062A03D90021394A99
:40070000986881509A6874215B5AD2181168284B0B40F82149010B431360244B1B687322995C703A8A40110070229A5C7220185C82400A43802109060A438021C900986852
:4007400042509A6852583F229A5C392A06D970229A5C02210A402449986842509A6874215B5AD2189168124B0B40C42189010B4393600E4B1A687323D35C032199407023F7
:40078000D35C7220105C1C0084402143022003400B43802109060B438021C9009068435093685B5807B030BD0000264048080008FF00FFFF3C200010087F0000400D0300D2
:4007C00004050000FEFCFFFFFFFF00FFFFF0FFFFFF8FFFFF00002740FFFCFFFF0C050000140C0000180C0000E40C000070B58AB09621002000F0A0FF00F076FF002814D1A6
:4008000000F062FFC0235B00514AD358DB0705D41100504A8B585B005B088B504C494D4A8B588020000603438B50012001F086FA494A516C494B0B40E82189010B43536452
:40084000536C1B0AFF2213403A2B07D1424A516C434B0B40E82189010B435364FFF766FE404A414B1A6000240CE06200121953003E4AD318198B9A8AD88A00041043FFF765
:400880004BFE01340B2CF0D900240AE0620012199300364AD3185A6E196ED86DFFF742FE0134112CF2D90F22314B1A60314A324B1A600123314A1360314A1360314A13688B
:4008C000812149000B43136001AC24220021200001F067FB80231B03E36021002A4800F015F92A4D22002B00343343CB43C243CB43C243CB43C22100254800F007F922002C
:400900002B00583323CB23C223CB23C223CB23C22100204800F0FAF824220021200001F040FBCC23DB03E36021001B4800F0EEF824220021200001F034FB70230193210011
:40094000164800F0E3F8FFF7CBFD0AB070BDC046000026400C05000000002740FF00FFFFFFC5FFDF0300FA05F00121403C200010000067400701010000026740047934401C
:400980000879344000793440000032403C21001080023240000332408004324000053240214B984230D00ED8402831D004D800281FD010282AD031E080282BD080235B0034
:4009C000984229D02AE0194B984229D007D8A0231B0698420DD0164B984212D01EE0154B98420AD0144B984209D0144B984215D101E0002016E0124814E0124812E012481E
:400A000010E0A020C0030DE007480BE00F4809E00F4807E00F4805E0034803E00E4801E0A420C0037047C04606005200010000F0090000A0040000F0050000F0030000F0EB
:400A4000010052000200520003005200010050000200500005005200FF00520070B5124B1A683123D35C002B04D1C421FF310F4800F01CFE0C4B1D682C00B423EB582A6A7C
:400A8000944663441B68002B0BDB094B1868FFF787FF6B6801229A6063689B68002BFBD100E0044870BDC04648080008E82A0010E80700080200500010B50D4B186100283C
:400AC00005D002230370FD33437000234380094B1B6850229A5C002A08D051229B5C002B04D04F3A0449002000F0F8FA10BDC046E8070008480800086101000810B50248A3
:400B00001430FFF7D9FF10BDE807000870B505000C0000285DD000295DD0FF230A689A4303D099212D4800F0C1FDFF2322699A4303D09A21294800F0B9FDA3685B0D03D068
:400B40009B21264800F0B2FD63685B0A03D09C21224800F0ABFDE3695B0F03D09D211F4800F0A4FD236A5B0F03D09E211B4800F09DFD1B4A11688B69EB1ADB0949691B01AC
:400B8000CB18216829607D211068415C6918E06808607E211068415C6918206908607F211068415C6918606908607C211068415C6918A06808606168A961116880228A5C58
:400BC000AD18A2692A60E2691A60226A5A60002002E0044800E0034870BDC046282B00104808000801005A0070B504000D000A4B1A68B423D3581B181B68002B0ADA0B0CE3
:400C000003D00649064800F051FD2D042D0C6560002000E0034870BD48080008D5020000A82B001001008A0070B505000C000368002B01DA002300E0084B002B0BD1EA6074
:400C4000230C03D00649074800F030FD2404240CAC60002000E0014870BDC04601008A00BB020000A82B001070B505000C1E03D19921084800F01AFD074B1A68B423D3589D
:400C80005B191B68002B03DAEB682360002000E0024870BDE82B00104808000801008A0070B504000D00234B1A683123D35C834236D9002936D00B68DB0635D13123D35C59
:400CC000984204D3C421FF311B4800F0EFFC194B1B681A6AB0215B5A5C431419174E34602B68DA080021686801F05BF900212000FFF77AFF3468002D03D111490E4800F0A2
:400D0000D5FC2A0000212000FFF78EFF00280DD10A4B18680021FFF767FF002808D108E0084806E0074804E0064802E0064800E0054870BD48080008A82B00100008000827
:400D40009303000003018A0001018A0010B50400002A17D1002915D1124B1A683123D35C984204D3C421FF310F4800F09FFC0D4B1B681A6AB0215B5A5C4314190B4B1C604C
:400D800000200EE0002A09D0002909D0074B59609A60191D2000FFF783FF02E0044800E0034810BD48080008A82B00100008000803018A00F0B583B00D001C4B1B68DC683B
:400DC000236883422DD947097B01C01A012383401E00002903D100F028FD019001E000230193124B18680368002B01DA002300E00F4B002B0ED16368BF00DF193B68334268
:400E000003D0B3433B60002400E00A4C0021FFF7EBFE00E0084C002D04D1019800F009FD00E0064C200003B0F0BDC0460008000801008A00020188000301880004018A0036
:400E40000A4B1B68DA68136883420BD943095901401A0121814052689B009B580B4203D0034802E0034800E003487047000800080101880004018A0000018800034B1B680C
:400E8000002B01D1014B18607047C0460C080008F0B5474680B404000F0090461E002D4B1B68002B03D1B5212B4800F0FFFB294B1B682C2060431C18FF22150035402560B4
:400EC000330A13406360360CA660244B1A683123D35C9D4204D3C421FF31214800F0E6FB1E4B1A68B023D35A6B43116A8C466344236166683223D35C9E4204D3E021FF3193
:400F0000174800F0D3FB154B1B681D6A80367601AD196561A668330C04D0FF214900104800F0C4FB330C03D00E490D4800F0BEFB3604330C1E43AE604346E3612762002318
:400F4000A361069B002B02D000229B5EA38104BC9046F0BD0C080008282C001048080008A82B0010FF010000F0B58FB0041E03D15221294800F09AFB6368032B03D9542105
:400F8000254800F093FBE36A002B03D15821224800F08CFB236B002B03D159211E4800F085FB07AA1300210061C961C321C921C302AD290023001433C1CBC1C141CB41C164
:400FC0000821535E0CAE3380144B1B6836215B5E07998C466344B370089B0D930B9B0A980096A26AE16AFFF753FF2B69E868002200920021FFF74CFF216B300000F0E8FA34
:401000000023F25E002A05DB1F231A401E3B9340034A13600FB0F0BD282C00104808000800E100E0F8B505000F0016001C00002A03D1FD21224800F039FB224B1B68002B0A
:4010400003D1FE211E4800F031FB1E4B1B682C2128004843181879435918012213004D68AB401B044568AA4015000269002A20D08F69002F1FD11268002A01DA002200E0F4
:40108000114A002A19D132681204120C134333600369DE6001238B614C6204692B0C03D00A490B4800F002FB2A04120CA260002004E0084802E0084800E00748F8BDC046DA
:4010C000282C00100C08000801008A00BB020000A82B001004028A0007028A0070B504000D0016000F4B1B68002B04D1AF2149000D4800F0DBFA0B4B1B682C2060431C18CA
:40110000236A002B04D1B1214900074800F0CEFAE369B34204D9236AB6009D51002000E0024870BD0C080008282C00100A028A0070B582B0040000230193002804D1D22122
:40114000FF312D4800F0B2FA2369002B04D1E9214900294800F0AAFA6369002B04D1D421FF31254800F0A2FA236A002B04D1EA214900214800F09AFA6269D5682B0C24D05F
:401180001B041360136820691C4B1A68B423D358C3181B68002B18DA01A9FFF765FD00280ED1019803681E0CFF221340E269934207D29B00226AD358002B02D0984700E081
:4011C000002631002069FFF70FFD2D042D0C0FD063691D601B68636A002B03D098470023636203E0A36A002B00D098470023A36163691B6802B070BD282C0010480800088B
:4012000010B50400084B1B68002B04D1B221FF31064800F04BFA044B1B682C2060431818FFF786FF10BDC0460C080008282C001010B50400094B1B689B6CC340DB0703D467
:40124000BE21074800F032FA044B1B681B691034A402E3580F20184010BDC04648080008682C0010134B1A683C23D35C83421DD9042904D94B1EFF3B9BB2132B18D8FF29DA
:401280000CD91F2319400C4A0300C0339B009950D03080000423835000200AE007231940D0308000044BC150002002E0034800E002487047480800080000264001004A00C0
:4012C00070B5041E03D14A494A4800F0EFF9B023DB00494AD358002B00DA87E0474B22689A4203D94649434800F0E0F923689B039B0BE279002A02D08022520400E0002227
:401300001343B022D2003C498B50A2883D4B9A4204D98C218900374800F0C8F922893A4B9A4203D93949334800F0C0F9A388DB04D90C23891B04364A13400B43354A2E4923
:401340008B50A37A0F2B04D98E218900294800F0ADF9E37A0F2B03D92F49264800F0A6F9A289284B9A4203D92C49224800F09EF9A37A0F211940E27A1201FF2313400B43A3
:40138000A289120226490A401343A27B1207C02189050A401343B122D20017498B50A379042B03D91F49134800F080F9228A164B9A4204D9912189000E4800F077F90E485A
:4013C00019494558194B1D40A3791B02E022D20013402B4343504558154B1D40238A1B040B4A13402B434350002000E0114870BD1F020000A82C001000002640FFFF03000B
:4014000029020000FF1F0000FF010000310200000000FF0184050000390200003A02000000FF1F00430200008C050000FFF8FFFFFFFF00FE03004A0070B505003149324ADE
:401440008B588020000603438B502C0003E0012000F020F9013CB223DB002A4AD3585B0701D4002CF3D12749B122D2008858274B03408020800503438B50002D01D0002CBC
:401480000CD02049B022D2008B588020000603438B5003E0012000F0FDF8013CB223DB00184AD358DB0701D4002CF3D1002D01D0002C08D01349B122D2008B58C020800544
:4014C00003438B5013E00F4BB121C90058580F4A02408020800502435A5008395A58520052085A5008495A58520052085A50002D03D0002C03D0002002E0002000E0044895
:4015000070BDC046000026408C050000FFFFFFCF02004A0070B505000C001A4B1B6828229A5C012A15D1820807211000884327D19200AD1AED00FF20A8401B6820339A18A0
:401540001168AC4023004B40184004004C40146016E03A229B5EDBB2994203D176210A4800F0A4F8074B1B681B68072215408022120615438022920194466444A400E55088
:4015800070BDC04648080008302D001070B504000D000B4B9A680B4B9A420CD1002904D13821FF31084800F081F81034054BA400E058E55003E01034A400044BE05870BD32
:4015C00000ED00E000000008302D001000000010F0B5474680B482B0061E01914AD04368032B03D93221264800F060F80023F05E002804DBB178FFF78DFF002400E0214CDF
:401600000023F15E7368002912DB88081E4FC0308000C55903221140C900FC3290468A4095439A01434613408B402B43C35116E089B20F220A40083A920806329200134866
:401640001018476803221140C900FF252A008A4097439A012B0013408B403B4343600B4B9A680B4B9A4206D10023F05E0199FFF78DFF00E0034C200002B004BC9046F0BD2B
:40168000302D00100100560000E100E000ED00E00000000810B5034B1B78584300F0BCF810BDC046D400000801BEFEE770B50D00044C18220100200000F07BFCA56100202E
:4016C000FFF7F2FF00060008054B802212069A649B6C002B01DB002000E002487047C0460000274003004600054B8022120198585B68FF221A4202D08023DB02184370478F
:4017000000002640FEE7C04610B50A4B0268DA6142681A6282685A62C2689A620269DA6242691A6382695A63C2699A63FFF7EAFF10BDC04600060008F0B5474680B40028BA
:4017400001D0192300E064238B429B415B42304D2C682268A826A45BA41822680327BA433B401A4322602C682268A45BA2181668284CA046264016602C682668AA2294462D
:40178000A25A96193268BA43134333602A6813686546525BD3181A68444614401C60002805D010291BD921291BD8012024E0184B1B6855229A5C914215D956229A5C9142F1
:4017C00013D957229A5C914211D958229A5C91420FD959229B5C99420DD804200CE000200AE0022008E0002006E0012004E0022002E0032000E00520054A1268526813681B
:401800000F218B430343136004BC9046F0BDC04648080008FFFCFFFF0230800803D001300238FCD1C046C0467047EFF3108072B6704780F31088704710B5B0235B059B89A0
:401840009BB2002B04D0B0235B059B899BB201E080235B0080225200934215D1184C23681968683A9B58C9180B680F208343963A13430B6021680C689C23CB58E3181968B0
:4018800081430A431A6019E00D4C2368196898229B58C918B02040050A4BC2580A4B13400A681343C022920013430B60226811689C23D358CB18054A82581A6010BDC04642
:4018C0004808000848180000FFFCFFFF4418000030B5B0235B059B899BB2002B04D0B0235B059B899BB201E080235B0080225200934215D1184C23681968683A9B58C9183B
:401900000B680F208343953A13430B6021680C689C23CB58E318196881430A431A6019E00D4D2B68196898229B58C918B0246405C12040012258094B13400A681343C022AA
:40194000920013430B602A6811689C23D358CB1822581A6030BDC04648080008FFFCFFFFB0235B059B899BB2002B04D0B0235B059B899BB201E080235B0080225200934215
:401980000DD1104B1B681A6898215B58D21811680D4B0B40C021C9010B43136011E0094B1B68196898229B58C918084BB0225205D258074B13400A681343C0229200134357
:4019C0000B60704748080008FF8FFFFF18180000FFFCFFFF30B5B0235B059B899BB2002B04D0B0235B059B899BB201E080235B008022520093420DD1134B1B681A689821EA
:401A00005B58D2181168114B0B408021C9010B43136018E00C4D2B68196898229B58C918B02464050A4822580A4B13400A681343C022920013430B602A6811689C23D35827
:401A4000CB1822581A6030BD48080008FF8FFFFF4C180000FFFCFFFF10B5B0235B059B899BB2002B04D0B0235B059B899BB201E080235B0080225200934217D10020FFF7AF
:401A8000D7FBB0235B055B78002B04D0B0235B055B78DBB200E02123222B03D8002803D1013004E0012002E0002000E0012010BD30B585B004000D00022807D9042805D038
:401AC000032803D02A492B48FFF7F0FD6B1EDBB2012B07D9042D05D0082D03D026492548FFF7E4FDA400254BE458042D13D0012D1CD112E0A3682B420BD1E3681A68029216
:401B00005B6801930393290002A8236898471B4B5C61646902E0002000E00020002C24D0174B9842E6D1012DE4D11EE0022D01D104E01C006369002BFBD104E00F4B5C69CE
:401B4000002C00D0246900200DE0A3682B4209D1E3681A6802925B6801930393290002A8236898472469002CEFD105B030BDC046B2090000742D0010B30900001008000889
:401B8000FF00420070B50500012804D9E02149001B48FFF78BFD1B4B1B68002B05D001210020FFF785FF040000E00024002C20D1FFF73BFE0600134B1B68002B03D0042186
:401BC0000020FFF775FF104A136904218B431361012D01D030BF00E020BF3000FFF729FE084B1B68002B09D008210020FFF760FF04E002210020FFF75BFF044C200070BD98
:401C0000742D00101008000800ED00E0FF004200F8B50700012803D93D493E48FFF746FDB0235B055B78002B04D0B0235B055B78DBB200E021239DB2B0235B059B899BB218
:401C4000002B04D0B0235B059E89B6B201E0802676000020FFF7ECFA002814D180235B009E4212D1222D12D82B4B1B685C682B4821582B4B19403B068022520413400B4351
:401C80002350002404E0274C02E0264C00E0254C80235B009E4201D1222D03D880235B009E4232D01C4B1A683123D35C002B04D1C421FF311C48FFF7F9FC174B1B681D6A9B
:401CC00080235B009E4203D1002F05D0174A06E0002F03D0164A02E0164A00E0164A01212800FEF7A1FF00280FD10B4B1A68B423D3585B191B68002BF7DBEB681B0E1B06B1
:401D0000A0221206934200D100242000F8BDC0464C0A0000742D00104808000818F00000FFFFFFFE04004200E82A0010010100300300000C010000300100000CF8B5050029
:401D4000012804D9822109012948FFF7AFFCFFF783FE002849D0FFF768FD0700002D11D10021244B244AD150E823DB00B0225205D65CF6B20120FFF74BFF041E19D1FFF70A
:401D80005BFD16E0B02252051C4BD0581A4B194958501B49565CF6B21A481A581F218A4314390A431A500320FFF774FCFFF712FE0024002C15D11049124A8B581F208343A9
:401DC00006401E438E50002D02D1FFF7C9FD08E00720FFF75FFCFFF77BFD0020FFF718FF04003800FFF725FD00E0074C2000F8BD742D0010307F000000002640101800005D
:401E0000410700001CFF000003004200042805D10B4A116804230B4313600FE0094B1A681168A023D358CB180006C022920410401860034A136804218B4313607047C04602
:401E400010E000E0480800080749C02252008B589B009B088020C00503438B508B588020000603438B50704700002640014B18607047C04648080008002243088B4274D3EE
:401E800003098B425FD3030A8B4244D3030B8B4228D3030C8B420DD3FF22090212BA030C8B4202D31212090265D0030B8B4219D300E0090AC30B8B4201D3CB03C01A524123
:401EC000830B8B4201D38B03C01A5241430B8B4201D34B03C01A5241030B8B4201D30B03C01A5241C30A8B4201D3CB02C01A5241830A8B4201D38B02C01A5241430A8B42FA
:401F000001D34B02C01A5241030A8B4201D30B02C01A5241CDD2C3098B4201D3CB01C01A524183098B4201D38B01C01A524143098B4201D34B01C01A524103098B4201D32D
:401F40000B01C01A5241C3088B4201D3CB00C01A524183088B4201D38B00C01A524143088B4201D34B00C01A5241411A00D20146524110467047FFE701B5002000F006F8BE
:401F800002BDC0460029F7D076E770477047C046002310B59A4203D0CC5CC4540133F9E710BD03008218934202D019700133FAE77047030030B5002A0DD00C7801335D1E28
:401FC000013A2C700131002CF5D19A189A4202D01C700133FAE730BDF8B5C046F8BC08BC9E467047F8B5C046F8BC08BC9E4670470300000001000000010000000000000067
:4020000005036000040000000100000000000000010000000604600008000000C8070008B901001073797374656D5F70736F63365F636D30706C75732E630000F401000087
:40204000140004010A00090508000000630100000020344074008020344074000022344074008022344074000024344074008024344074000026344074008026344074006B
:40208000002834407400802834407400002A34407400802A3440740000213440B82100109000000000233440482200109000000000253440D822001090000000002734405F
:4020C000682300109000000000293440F823001090000000002B3440882400109000000000603440182500107C00000080603440942500107C000000006134401026001021
:402100007C000000806134408C2600107C00000000623440082700107C00000080623440842700107C00000000633440002800107C000000806334407C2800107C00000060
:4021400000643440F82800107C00000080643440742900107C00000000653440F02900107C000000806534406C2A00107C00000003000000000000000000000068000000F6
:4021800000000000000000000000000012120000000000003000000000000000000000000000CCBA0000000000000000000000000000000013131D1D0000080000000000DD
:4021C00000000008FFFFFFFFFFFFFFFFFFFFFFFFFFFFFFFFFFFFFFFFFF000000FFFFFFFFFFFFFFFFFFFFFFFFFFFFFFFFFFFFFFFFFF0000000000001F1F06000000000000BD
:402200000000000000F0000000F00000FFFFFFFFFFFFFFFFFFFFF7FF111111111111111111111111111111111111111111111111111111111111111111111111111111112A
:402240001111111111111111000040050000000000000000FFFFFF6FFFFFFFFFFFFFF2FFFFFFFFF7FFFFFFFFFF000000FFFFFFFFFFFFFFFFFFFFFFFFFFFFFFFFFFFFFFFF5F
:40228000FF000000001F000000001F001F001F1F050000000000000000000000FFFFFFFFFFFFFFFFFFFFFFFF1111111111111111111111111111111111111111118E111176
:4022C000111111111111111111611111101111111111111111111110000081900000000000000040FFFFFFFFFFFFFFFFFFFFFFFFFFFFFFFFFFFFFFFFF6000000FFFFFFFFC9
:40230000FFFFFFFFFFFFFFFFFFFFFFFFFFFFFFFFFF0000001F001F0000000E1F000000001F1F1F1F0000000000000000FFFFFFFFFFFFFFFFFFFEFFBF111111C111111111DC
:4023400011111111111111111111111111F11111111111111111111111111111111111111111111011111111040010810000000000000000FFFFFFFFFFFFFFFFFFFFFFFF4D
:40238000FFFFFFFFFFFFFFFFFF000000FFFFFFFFFFFFFFFFFFFFFFFFFFFFFFFFFFFFFFFFF70000001F0000001F00070B1F00001F0807001F000F0F00F00F00F5FFFFFFFF79
:4023C000FFFFFFFFFFFFBF7F1111111C111111111111111111111111111111111111111111111111111101111111111111111111111101110111111100802888000000006A
:4024000000000080FFFFFFFFFFFFFFFFFFFFFFFFFFFFF3FFFFFFFFFFFF000000FFFFFFF0FFFFFFFFFFFFFFFFFFFFFFFFFFFFFFFFFF0000000000081F001F001F1F071F1F98
:40244000001F001F000076000F0000F0FFFFFFFFFFFFFFFFFFFFDF7D111111111111D1111111111111111111111111111111111E11111111111101111111111111111111F2
:402480001101111111171111802010400000000000000000FFFFF5FFF7FFFFFFFF1FFFF155FFF7F65FFFFF6FF7000000FFFFFFFFFFFFFFFFFFFFFFFFFFFFFFFFFFFFFFFFCA
:4024C000FF000000000000001F00001F0000000000001F1FF60000F00000F000FFFFFFFFFFFFFFDFFFFFFFFF111151C1E1111111111111111111111111111111111111115F
:4025000011411E111115111111116111131118111FB111117171111100000000000000001F1F1F1F1F1F1F1F1F1F1F1F1F1F1F1F1F1F1F1F1F1F1F1F1F1F1F1F1F001F1F3A
:402540000000061F0F1F000000000000000000000070000000700000FFFFFFFFFFFFFFFFFFFFFBEF111111111E11111111111111111111111111111111111111111111115F
:402580001111111111111111111111111111111111C1111100000000000000801F1F1F1F1F1F1F1F1F1F1F1F1F1F1F1F1F1F1F1F1F1F171F1F1F1F1F1F1F1F1F000E0000B1
:4025C000000000001F071F0E1F0000000000000000000000FFFFFFFFFFFFFFFFFFFF7E5F111111111111111111111111111111111111111111111111111111111111111176
:402600001111111111111111111111171111101100000000000000001F1F1F1F1F1F1F1F1F1F1F1F1F1F1F071F1F1F1F1F1F1F1F1F1F1F1F1F1F1F1F000006040000001F94
:40264000000000001F080F000070700000000000FFFFFFFEFFFFFFFFFFFFFB7F1111111111111111111111111111111111111111111111111D111111111111111111111165
:4026800011111D18101111011111011100004000000000001F1F1F1F1F1F1F1F1F1F1F1F1F1F1F1F1F1F1F1F1F1F1F17171F1F1F1F1F1F1F0D000602000000001F00000810
:4026C0001F00001F000F07007007005FFFFFFFFFFFFFFFFFFBDFFDFF1111111D111111111111111110111111111111111111111111111111111111111111111D1111111123
:40270000111111711EF1E10F00000000000000001F1F1F1F1F1F1F1F1F1F1F1F1F1F071F1F1F1F1F071F1F1F1F1F1F1F1F1F1F1F0000001F001F000E0E1F021F0005001F88
:4027400000000F00060500F0FFFFFBFFFFFFFFFBFFFFFFFF11111111D1111111111111111111111D11111111111111111111111111111D117110111111171111011E11113D
:4027800011E1111E00000040000000201F1F1F1F1F1F1F1F1F1F1F1F1F1F1F1F101F1F1F1F071F1F1F1F1F1F1F1F1F1F000000000000010700000000000000067F0000F062
:4027C0000040F000FFFFFFFFFFFFFFFFFFFFFFFD11111111D1111111111011111111111111111111111111111111111111101111111111111B1D1111611D11111111111D4B
:402800000000000000000000031F1F1F1F1F1F1F1F1F1F1F1F1F1F1F1F1F1F1F1F1F1F1F1F1F1F1F1F0F1F1F0000000400000000000000000000000000F0000000F0000000
:40284000FFFFFFFFFFFFFFFFFFFFFFFF1111111118111111111111111111111111111111111111D11D11111111111141111111111111111111111111111111100000000032
:40288000000000001F061F1F1F1F1F1F1F1F1F1F1F1F1F1F1F1F1F1F1F1F171F051F1F1F1F1F1F1F001F000000000706070D081F000000000000005000000000FFFFFFFFC0
:4028C000FFFFFFFFFFFFFF3D111111111111111111111111111111191111111111111111111111A1111111111111E161111D1111111111111101101100000000000000C8F7
:402900001F1F1F1F1F1F1F1F1F1F1F1F1F1F1F1F1F1F1F1F1F1F1F1F1F1F1F1F1F161F1F0C001F0000001F0700000A06061F1F070000000000000000FFFFFFFFFFFFFFFF1C
:40294000FFDFF727111111111111111111111111111111111111111111111111111111111111111111C1111111011111111111111111111100000000000000401F1F1F1FCF
:402980001F1F1F1F1F1F1F1F1F1F1F1F1F1F1F1F1F1F1F1F1F1F1F1F1F1F1F1F1F00000D07001F000700001F001F000700040F00F00F00F0FFFFFFFFFFFFFFFFFFF7FFFF27
:4029C00011111111E1111111111111111111111111111111111111111111111111E111111111111111111111111E11D11DD111DE00000000000000081F1F1F1F1F1F1F1FA1
:402A00001F1F1F1F1F1F1F1F1F1F071F1F1F1F1F1F1F1F1F1F1F1F1F0000000E000F000000001F060000000F000000000F000050FFFFFFFFFFFFFFFFFFFFF7FF11111111E6
:402A4000F111111111111111111111111111111111111111111111111111181111111111111D0111111111111111111100000004000000001F1F1F1F1F1F1F1F1F1F1F1F0F
:402A80001F1F1F1F1F1F0F1F1F1F1F0F1F1F1F1F1F1F1F1F0000000707000000000006080000071FF000006000006F00FFFFFFFFFFFFFFFFFFCFFFFE11111111111111117E
:402AC00011111111111111111111111111111111111111111111111111111111111F1111111D1BE11191111D47656E6572617465645F536F757263655C50536F43365C709C
:402B0000646C5C647269766572732F7065726970686572616C2F6970632F63795F6970635F6472762E68000047656E6572617465645F536F757263655C50536F43365C70AB
:402B4000646C5C647269766572735C7065726970686572616C5C6770696F5C63795F6770696F2E630000000047656E6572617465645F536F757263655C50536F43365C70AE
:402B8000646C5C647269766572735C7065726970686572616C5C6770696F5C63795F6770696F2E680000000047656E6572617465645F536F757263655C50536F43365C7069
:402BC000646C5C647269766572735C7065726970686572616C5C6970635C63795F6970635F6472762E68000047656E6572617465645F536F757263655C50536F43365C7064
:402C0000646C5C647269766572735C7065726970686572616C5C6970635C63795F6970635F6472762E63000047656E6572617465645F536F757263655C50536F43365C7028
:402C4000646C5C647269766572735C7065726970686572616C5C6970635C63795F6970635F706970652E630047656E6572617465645F536F757263655C50536F43365C7086
:402C8000646C5C647269766572735C7065726970686572616C5C70726F745C63795F70726F742E630000000047656E6572617465645F536F757263655C50536F43365C7041
:402CC000646C5C647269766572735C7065726970686572616C5C737973636C6B5C63795F737973636C6B2E630000000047656E6572617465645F536F757263655C50536F9E
:402D000043365C70646C5C647269766572735C7065726970686572616C5C737973636C6B5C63795F737973636C6B2E680000000047656E6572617465645F536F7572636581
:402D40005C50536F43365C70646C5C647269766572735C7065726970686572616C5C737973696E745C63795F737973696E742E630000000047656E6572617465645F536F65
:402D8000757263655C50536F43365C70646C5C647269766572735C7065726970686572616C5C737973706D5C63795F737973706D2E630000000020400000244000000040FE
:402DC0000000000000002340000030400000314000009F40000022400000104002020202020202020210101D800017007500FF030602063604102000000000007FC00000EA
:402E000000040000000000000019324B647D00804000080B100000000000FF012002001F00800004FF081018001000140018001C4044484C50000000081000000800000060
:402E400004000000041000000012000004210000002100000016000040114002C41300138013A013200000001C0000000000214000002540000001400000344000002440EE
:402E8000000031400000324000001F410000234000001140010101010101010101101010800019005500F0000501053B04101C01010000000FC000000004000001010101B5
:402EC000011D3A57789600082000101208000000001F00000010000F002000023F06080E00080009000A000B24282C303400000010000000900000008800000008000000D6
:402F00008000000004F0000000F00000400200002005A000D00100018001A0012000000010000000000000000000001000000008C0000000482F0010C00000084005000096
:402F40003C060008100200000048E80100127A0000093D0000093D0000093D0004000000A00F00000000D007E9000010C10000100000000010B50004400B27D0144B1A6826
:402F8000146AB023D15ACA00531AE3181B68002BF4DA3E220F4B1A600F4A104B1A60104B0621A322D20099500E4A98509B58084B1A68106AB023D15ACA00531AC3180022CF
:402FC0005A60084B064AD358002BFADA10BDC04648080008040126401E1F000008012640000026401C05000010B54378FF2B20D100F00AFA04000F4B1A683123D35C042B60
:4030000004D8C421FF310C4800F026FA094B1A68116AB023D35A9B00CB18DB685A68116801230B4313601368DB07FCD4200000F0FBF910BD48080008E82A0010F0B585B0B7
:4030400001900291544B1A683123D35C002B04D1C421FF31514800F0FFF94F4B1B681E6AB4229A58971950229B5C002B77D000F003FA050003283CD1474B1A683123D35C39
:40308000062B04D8C421FF31444800F0E5F9424B1968B023CB5A5A00D21853000A6A94466344B4228A58D3181B68002B23DB002000F0A2F93A4B98421FD03A4B1A6900238F
:4030C0000021012000F0D0F9002803D0364C17E0013400E00024002000F08EF9304B984202D0324B9C42F3D9304B9C4207D92E4C06E0002404E02C4C02E02B4C00E00024CD
:40310000002C46D100F080F90390294B294AD358002B13DA234A0121300000F095F900280ED10298FFF726FF019B002B0AD03B68002BFCDB00F080F9040004E01A4C02E04E
:40314000194C00E01C4C032D05D10121002000F063F90028F9D1039800F066F919E000F053F905000F4A0121300000F06DF9002809D1019B002B08D03B68002BFCDB00F0C1
:403180005BF9040002E0084C00E00B4C280000F04BF9200005B0F0BD48080008E82A001001018800E807000805005200EF4902001C0500000000264001005000F0B54F46CE
:4031C0004646C0B4824B1A685468B0235B055B78002B04D0B0235B055B78DBB200E02123212B67D1B023D15ACB005B1A116A8C46634419680029F5DADD6802212943D960CC
:40320000B023D15ACB005B1A116A8C466344D968C9073ED5D9680904090C8C4684271168D559A84641440968090A0904FF26360431400D0088261168894691598846C1441D
:4032400049460968090A0906294365462943D9601168D359C9180A685E4B98461A4090252D012A430A605A4B99461A6813689C46925962441368414619400B002B431360A2
:403280004B461A681568D15969180B689359EB181B684F4B1A68B021555AEB005B1B156AAC46634400255D60156A515ACA00531AEB185B68484A116904230B4313610128B2
:4032C00001D030BF00E020BF414B1A68B023D15ACB005B1A116A8C46634419680029F3DAB02149054978002904D0B02149054978C9B200E02121212932D1D968C90722D5E9
:4033000010688421525880180468324A1440DB681B0C1B02FF2109020B40234303602C4B19688823C8580B689C46604403681A400D6AB023CC5AE1000B1BEB18DB681B0EC5
:403340001B021A430260224B1A68106AB023D15ACA00531AC318DA6802218A43DA6028E086235B00E358002B23D11C4807681C4BA321C9005E581B4A904615681A4A02602B
:40338000062058503E21424611600631174A9950164B134AD358002BFADA154A86235B00E2500E4B1F60A323DB000D4AD6500D4B1D60074B1A68106AB023D15ACA00531A9B
:4033C000C31800225A600CBC90469946F0BDC04648080008FF00FFFF00ED00E00801264000002640040126401E1F00001C050000AAAAAAAA0000000001B40248844601BCF8
:40340000604700BF410E001001B40248844601BC604700BF2B18001001B40248844601BC604700BFB50D001001B40248844601BC604700BF3318001001B40248844601BCFD
:40344000604700BF5D0A001001B40248844601BC604700BF290C001001B40248844601BC604700BFAD16001001B40248844601BC604700BF2510001001B40248844601BCC8
:40348000604700BF3D040010000000000000000000000000000000000000000000000000000000000000000000000000000000000000000000000000000000000000000055
:4034C00000000000000000000000000000000000000000000000000000000000000000000000000000000000000000000000000000000000000000000000000000000000CC
:40350000000000000000000000000000000000000000000000000000000000000000000000000000000000000000000000000000000000000000000000000000000000008B
:40354000000000000000000000000000000000000000000000000000000000000000000000000000000000000000000000000000000000000000000000000000000000004B
:40358000000000000000000000000000000000000000000000000000000000000000000000000000000000000000000000000000000000000000000000000000000000000B
:4035C00000000000000000000000000000000000000000000000000000000000000000000000000000000000000000000000000000000000000000000000000000000000CB
:020000041008E2
:4000000000780408EB0208100D00000051030810510308105103081051030810000000000000000000000000000000004D0308104D030810000000004D0308104D030810DA
:400040004D0308104D0308104D0308104D0308104D0308104D0308104D0308104D0308104D0308104D0308104D0308104D0308104D0308104D0308104D0308104D03081000
:400080004D0308104D0308104D0308104D0308104D0308104D0308104D0308104D0308104D0308104D0308104D0308104D0308104D0308104D0308104D0308104D030810C0
:4000C0004D0308104D0308104D0308104D0308104D0308104D0308104D0308104D0308104D0308104D0308104D0308104D0308104D0308104D0308104D0308104D03081080
:400100004D0308104D0308104D0308104D0308104D0308104D0308104D0308104D0308104D0308104D0308104D0308104D0308104D0308104D0308104D0308104D0308103F
:400140004D0308104D0308104D0308104D0308104D0308104D0308104D0308104D0308104D0308104D0308104D0308104D0308104D0308104D0308104D0308104D030810FF
:400180004D0308104D0308104D0308104D0308104D0308104D0308104D0308104D0308104D0308104D0308104D0308104D0308104D0308104D0308104D0308104D030810BF
:4001C0004D0308104D0308104D0308104D0308104D0308104D0308104D0308104D0308104D0308104D0308104D0308104D0308104D0308104D0308104D0308104D0308107F
:400200004D0308104D0308104D0308104D0308104D0308104D0308104D0308104D0308104D0308104D0308104D0308104D0308104D0308104D0308104D0308104D0308103E
:400240004D0308104D0308104D0308104D0308104D0308104D0308104D0308104D0308104D0308104D0308104D0308104D0308104D0308104D0308104D0308104D030810FE
:400280004D0308104D0308104D03081010B5054C237833B9044B13B10448AFF300800123237010BD4C49020800000000B4470810084B10B51BB108490848AFF300800848BB
:4002C000036803B910BD074B002BFBD0BDE81040184700BF0000000050490208B447081018430208000000007047FFF7FDFF72B6104C114DAC4209DA21686268A368043B9B
:40030000A2BFC858D050FAE70C34F3E70B490C4A00209142BCBF41F8040BFAE709480A490860BFF34F8F00F0BBFA00F095FA00F07BF8FEE7B8470810D04708104C490208F3
:40034000CC4E02080040020808ED00E0FEE7FEE700B504207146084202D0EFF3098001E0EFF30880043002F05FFBFEE708B50549054801F023FD10F4803FF8D1012002F0A1
:4003800037FB08BD184E02080000674008B5084B187059709B600222DA6000221A74054A191D054801F0C4FDFFF7E0FF08BD00BF68490208184E02080000674010B5134BF3
:4003C000B3F90030002B09DB5A0903F01F03012101FA03F360320E4941F822300D4C40220D49204600F02EFF642002F0E9FA40220A49204600F026FF642002F0E1FA802203
:400400000749204600F01EFF10BD00BFE441081000E100E0000066404C4C0208B04C0208844B0208000000002DE9F0412DED028B86B062B600F06CFA00F0A6FA904C914970
:40044000204602F083FAB4F90030002B08DB590903F01F03012202FA03F38B4A42F821308A4B1868002302221946406803F0AAFA02F058FE864B20225A6010225A604FF452
:40048000FA7002F09DFA4022824B1A71814A536901335361642B02D100227E4B5A614FF4FA7002F08DFA7A4B20229A6010229A6040F2A46002F084FA012432E0764D002104
:4004C000284602F063FC4FF4FA7002F079FA2146284602F0B5FC07EE900AF8EEE77ACDED027A4FF4FA7002F06BFADDED027AFDEEE77ACDED017ABDF904202146284602F03B
:40050000F5FC07EE900AF8EEE77ACDED037A4FF4FA7002F055FA039B4FF4FA7002F050FA0134022CCAD95A4B20225A6010225A60594C0021204602F029FC4FF4FA7002F0D3
:400540003FFA0021204602F07BFC07EE900AF8EEE77ACDED047A4FF4FA7002F031FADDED047AFDEEE77ACDED017ABDF904200021204602F0BBFC07EE900AF8EEE77ACDED17
:40058000057A4FF4FA7002F01BFADDED058A4FF4FA7002F015FA01214020FFF7F7FE052002F00EFA3B4C4FF0000884F80080A4600123E3602374394F261D394D3A46314661
:4005C000284601F0B5FCFFF7D1FE04F11803A3600523E36084F810803A463146284601F0EFFBFFF7C3FE257E637E43EA0525E07E237F43EA002002F015FF1DA3D3E90023D8
:4006000003F0A0F80022274B02F072FF03F082F908EE100A284602F005FF15A3D3E9002303F090F814A3D3E9002302F061FF00221D4B02F0A9FD03F06DF96369FDEEE87AC8
:4006400017EE902A194921F81320FCEEC87A17EE902A1749CA5407EE900AFCEEE77A17EE900A144AD05442F2107002F0A9F90DE700000000E0FFEF400000000000A064401B
:40068000E4410810BD03081000E100E00C430208800432406849020800001D41184E0208000067400000594000004440844B0208B04C02084C4C020808B5012000F052FD2A
:4006C00008BD00BF704700BF5C4AD2F8803303F00F0303F1D00152F8212002F00702032A04D0042A05D092B9554914E0554A116811E003F1C002514951F8222002F01F02B5
:40070000112A06D0132A04D04FF4FA4103E04E4901E04FF400418BBB484BD3F8902502F00100D3F88825C2F30172D3F8883513F0405F07D0414BD3F88835C3F30173012BE3
:4007400002D102E0012300E0002303B108B9032A46D13A48D0F88025C2F31103D0F88425C2F30C02D0F88005C0F300600130B1FBF2F202FB03F2B2FBF0F131E0012B2FD11A
:400780002E4BD3F8402602F00100D3F80026C2F30172D3F8003613F0405F07D0274BD3F80036C3F30173012B02D102E0012300E0002303B108B9032A12D12048D0F8002689
:4007C00002F07F02D0F80036C3F30423D0F80006C0F3044002FB01F2B2FBF3F2B2FBF0F1164BD3F88033C3F3011321FA03F215494A601648D0F89030C3F3072301330069B2
:40080000000E0130B2FBF0F08860B2FBF3F3CB600B6103F5742202F23F220D48A0FB0202C2F387420A7503F2E7330A4AA2FB03239B098B61DB03CB61704700BF000026406A
:4008400000127A008C42020800366E010000214083DE1B43D34D621008B50D4802F048F9FFF730FFFFF730FF00221146042000F041FA084800F0D4FA074B1B6893F8513077
:4008800013B1064800F03CFB00F07EF908BD00BF9045081088490208644E0208A841081008B502F01EF9074AD2F8883043F47003C2F88830BFF34F8FBFF36F8F02F015F99A
:4008C00008BD00BF00ED00E010B504462146034800F088FC0028F9D010BD00BF00006640054BD3F80833C3F30803002BF8D0024BD3F84003704700BF0000664008B50249C6
:40090000024801F08BFF08BDE04D02080000664008B5114B1B785BB9104A1149114801F059FD1149114802F011F801220A4B1A700E4BB3F90030002B08DB590903F01F03D2
:40094000012202FA03F30A4A42F82130054A136843F00043136008BD084B0208E04D0208FC41081000006640FD080810F441081000E100E008B50249024801F035FC08BD18
:40098000184E02080000674010B5144B1B788BB9134C144A1449204601F01AF8134A1449204601F023F91349134801F0CFFF01220A4B1A70104BB3F90030002B08DB590956
:4009C00003F01F03012202FA03F30C4A42F82130034A136843F00043136010BD094B020800006740184E02083C42081084D71700A086010075090810EC41081000E100E02E
:400A00001F4B98422DD00CD840282ED003D8E8B1102828D02FE0802829D0B0F5807F28D029E0184B984228D006D8B0F1204F0DD0154B984212D01EE0144B98420AD00133D1
:400A4000984209D0023B984215D101E0002070470F4870470F4870470F4870474FF4A0007047074870470D4870470D4870470D487047034870470C4870474FF4A400704775
:400A800006005200010000F0090000A0040000F0010052000200520003005200010050000200500005005200FF00520038B5124B1B6893F83130012B04D840F2C3110F48EB
:400AC00001F0A2FF0C4B1D682A6AB5F8B03013442C46D5F8B420D358002B0BDB084B1868FFF78EFF6B6801229A6063689B68002BFBD138BD034838BD644E0208504208101B
:400B00000C4B0208020050001A4B186128B102230370FF23437000234380174B1B6893F850202AB300B583B0B3F93830ADF80030002301931149684601F008FFBDF90030CD
:400B4000002B08DB590903F01F03012202FA03F30B4A42F82130084B1B6893F8513023B102220849012000F077FA03B05DF804FB704700BF0C4B0208644E020889430208DE
:400B800000E100E04144020808B50248FFF7BCFF08BD00BF204B020838B50B4B1B68D3F8B4301B58002B0DDA0D4604460B0C1B0423B140F2D521054801F026FFA9B26160EC
:400BC000002038BD024838BD644E02089042081001008A0038B50368002B01DA002300E0094B73B90D460446C2600B0C1B0423B140F2BB21054801F007FFA9B2A1600020F8
:400C000038BD014838BD00BF01008A009042081038B504460D4619B99921084801F0F4FE074B1B68D3F8B4301B59002B03DAE3682B60002038BD034838BD00BFD0420810F0
:400C4000644E020801008A00254B1B6893F8313083423AD900293AD00B6813F01F0F38D170B50D4604461E4B1B6893F83130984204D340F2C3111B4801F0C6FE184B1B6847
:400C8000186AB3F8B03004FB0304174E34602A68D2080021686802F08DFE00212046FFF77BFF346825B940F293310E4801F0ACFE2A4600212046FFF78DFF60B900210A4BEE
:400CC0001868FFF769FF40B970BD084870470748704706487047064870BD054870BD00BF644E020890420810244B020803018A0001018A0010B504461346B2B9A9B9124B5F
:400D00001B6893F83130984204D340F2C3110F4801F07AFE0C4B1B681A6AB3F8B03004FB03240B4B1C60002010BD43B149B1084A51609360111D2046FFF786FF10BD0548F2
:400D400010BD044810BD00BF644E020890420810244B020803018A002DE9F0411B4B1B68DC68236883422CD90D464609A0EB4610012303FA00F819B901F0B3FE074600E01B
:400D80000027124B18680368002B01DA002300E00F4B83B9626852F8263018EA030F05D023EA080342F82630002400E0094C0021FFF7F2FE00E0084C25B9384601F095FEB6
:400DC00000E0064C2046BDE8F08100BF244B020801008A00020188000301880004018A000B4B1B68DB681A6882420CD94109A0EB4110012202FA00F05B6853F821301842A7
:400E000003D004487047044870470448704700BF244B02080101880004018A0000018800024B1B680BB9014B18607047304B02082DE9F8430446884691461D46089F2C4BA7
:400E40001B681BB9B5212B4801F0DEFD284B1B682C2000FB04F01C18EEB21E50C5F3072363602D0CA560244B1B6893F831309E4204D340F2C311214801F0C6FD1E4B1B680C
:400E8000196AB3F8B02006FB02162661666893F832309E4204D340F2DF11184801F0B4FD154B1B681D6A803605EB46156561A668330C1B0423B14FF4FF71104801F0A4FDF0
:400EC000330C1B0423B140F2FF110C4801F09CFDB3B243EA0646AE60C4F81C90C4F820800023A36117B1B7F90030A381BDE8F883304B020810430810644E02089042081047
:400F0000F0B58FB0044618B95221274801F07CFDA369072B03D95621234801F075FDE36A1BB95821204801F06FFD236B1BB959211D4801F069FD07AD04F114060FCE0FC59C
:400F400037682F6002AD26460FCE0FC533682B60164B1B68B3F93620079B1344ADF83030089B0D93A26AE16A0CAD00953B460A98FFF75EFF00210091069B0A460598FFF7D9
:400F800057FF216B284601F0E1FCBDF93030002B08DB590903F01F03012202FA03F3044A42F821300FB0F0BD10430810644E020800E100E0F8B506460F461D4614461AB958
:400FC000FD211F4801F020FD1E4B1B681BB9FE211B4801F019FD1B4B1B682C2101FB063001FB07314B68012202FA03F31B04466802FA06F60269EAB18F69EFB91268002AA2
:4010000001DA002200E0104AC2B92288134323600369DC6001238B614D620469330C1B0423B140F2BB21094801F0EEFCB2B2A2600020F8BD0648F8BD0648F8BD0548F8BDF8
:4010400010430810304B020801008A009042081004028A0007028A00F8B505460F4616460E4B1B6823B94FF4AF710D4801F0CCFC0A4B1B682C2404FB0534236A23B94FF40A
:40108000B171074801F0C0FCE369B34204D9236A43F826700020F8BD0248F8BD304B0208104308100A028A0070B582B000230193044620B940F2D111284801F0A5FC236969
:4010C00023B94FF4E971254801F09EFC636923B940F2D311214801F097FC236A23B94FF4EA711E4801F090FC6369DD682A0C20D012041A601B682069194B1B68D3F8B43081
:40110000C358002B15DA01A9FFF782FD60B9019803681E0CDBB2E269934206D2226A52F8233013B1984700E0002631462069FFF733FDADB275B16369ADB21D601B68636A1A
:401140001BB198470023636202E0A36A03B198470023A36163691B6802B070BD10430810644E020810B50446074B1B6823B940F2B111064801F048FC034B1B682C2000FB8F
:401180000430FFF791FF10BD304B02081043081010B4D0F8003303F00F03072B06D900230DE0D0F84043CC54013300E000239342F7D306E0D0F8404321F8134001339342EC
:4011C000F8D35DF8044B704710B51446D0F80833C3F308039A4200D31C462246FFF7D8FF204610BD036813F4006F01D0802200E04022D0F80832C3F30803934203D0C0F8B4
:401200004012012070470020704700BF10B4D0F8003203F00F03072B06D900230DE0CC5CC0F84042013300E000239342F7D306E031F81340C0F8404201339342F8D35DF80D
:40124000044B704710B51446036813F4006F01D0802200E04022D0F80832C3F30803D31AA34200D81C462246FFF7D0FF204610BD02E0C0F84012013A002AFAD1704700BFF2
:4012800010B51446036813F4006F01D0802200E04022D0F80832C3F30803D31AA34200D81C462246FFF7E4FF204610BD10B54A6841F201039A4231D1D0F80833C3F30803E6
:4012C000B3B10B6A43F040030B620B7873B1D0F8043343F48033C0F80433D0F8043323F48033C0F80433D0F8043301E0D0F840330B6A43F020030B620B6A23F010030B62A0
:40130000036E23F4204303660023C0F8C83F0123C0F8C03FD0F8C03F202221E0D0F80832C3F30802D0F80832C3F3C03313440A6BD21A4A630A6A12F0080F05D1CA6A1A44CB
:40134000CA628A6AD31A8B620B6A43F004030B620B6A23F001030B620023C0F8883F1022D0F84C4F40F201131C420DD0036823F00043036000238366C366036843F000436C
:401380000360036842F040024FF080534B604B6C0BB11046984710BDD0F80C3F13F0020F1DD00222C0F8002FD0F8002FD0F8002F12F0040F02D04FF4001001E04FF48010BE
:4013C0008A6802438A604A68B2F5B81F07D00A7B12B14FF4C01201E04FF4B0124A6013F4807F03D08A6842F400028A6013F0010F03D08A6842F480028A6040F211121342C7
:4014000002D04FF4C0134B60704700BF0023C0F8C83FC0F8883F836E23B140F21713C0F8083F704740F21313C0F8083F182383664FF4B8134B60704738B5D0F80C4F036EFF
:4014400023F4807303660023C0F8C83FC0F8883FC0F8083F40F21713C0F8003FD0F8003F8B6823F480338B604B7B13B18B69CB610BE08D69D0F80822C2F30802D0F8083259
:40148000C3F3C0331344EB1ACB6140F201131C421BD0036E9B0F032B05D114F4827F14BF0123002300E001235BB1036823F00043036000238366C366036843F0004303607D
:4014C00003684FF080534B601BE00B7893B1D0F8043343F48033C0F80433D0F8043323F48033C0F80433D0F804330123C0F8C03FD0F8C03F0B7B0BB10B4B01E04FF0805346
:401500004B604A6C72B14B7B13B14FF4802001E04FF400308B6813F0F87301D04FF400231843904738BD00BF0000101070B505460C4691F8243013F0FF0F0ED1CB6A63B9E8
:401540004B6C0BB108209847E36AB3FA83F35B0984F824300123C5F8883F94F8243013F0FF0F16D063783BB12B6813F4006F01D0802202E0402200E00122FF212846FFF7C0
:401580007FFE236B18442063236A43F00803236270BDE26A012A11D963780BB1013A00E00122A16A2846FFF74DFE236B03442363E36A1B1AE362A36A1844A062D5F8083240
:4015C000C3F30803802B23D0E36A012B20D101F088FAA36A1B78C5F840324026C5F8806FD5F8803F01F081FA236B013323630023E362A36A0133A362C5F8886F63783BB165
:40160000236A43F002032362636C0BB10420984770BD00BF38B54B68B3F5A81F03D14FF4C0134B6038BD4B68B3F5A01F4DD10C4605464A69012A11D94B780BB1013A00E016
:40164000012221692846FFF7FDFDA3690344A36163691B1A6361236903442361D5F80832C3F30803802B14D06369012B11D101F038FA23691B78C5F840324023C5F8803F6B
:40168000D5F8803F01F031FAA3690133A361002363616369CBB9237B33B14023C5F8883F4FF4A813636005E00023C5F8883F4FF4B0136360637843B1A36843F40033A36041
:4016C000636C13B14FF48030984738BD70B504460D468A6C82B3036813F4803F06D0D0F84C3F13F0400F03D0022002E0002000E00020236E13F4006F06D1D4F84C3F13F0C8
:40170000800300D001231843C0B190470123C4F8C03FD4F8C03F024648B91023C4F8403FD4F8403F40F2D113C4F8483F07E040F2C113C4F8483F02E0002200E00022D4F888
:40174000043243F48033C4F80432D4F8043223F48033C4F80432D4F804320AB9012300E00223E366002A59D1666E06F010066B6C23B10EB1012000E0022098477EB141F260
:4017800002036B602B6A43F001032B626B6B2B63002385F824300123C4F8883F70BD41F201036B602B6A43F010032B620123C4F8C83F2B78BBB1EB6BBBB1236E43F4005397
:4017C0002366ED6B802D05D9A5F18003802B0ED8813D0DE0013D236E43F4004323660023C4F8C83F04E0002502E0002500E03F25236813F4006F01D0802300E040239D4285
:4018000004D34FF42071064801F0FEF8D4F8043323F0FF03EDB21D43C4F8045370BD00BF5043081038B54B68B3F5881F03D0B3F5901F1AD038BD0B69D0F840231A708B69F2
:4018400001338B614B69013B4B612BB10B6901330B610423836638BD0B7B13B14FF4C01301E04FF4B0134B6038BD0C4605464A690969FFF7A9FCA3690344A36163691B1A1B
:401880006361226910442061012B24D82B6E23F480732B666369012B16D12B6813F4006F01D0802300E0402323B94FF42071184801F0AAF8D5F8043323F0FF03C5F8043359
:4018C0004FF48813636038BD0023C5F8C83F4FF4B013636038BD402B01D89C1E00E03F242B6813F4006F01D0802300E040239C4204D34FF42071064801F086F8D5F8043362
:4019000023F0FF02E3B21343C5F8043338BD00BF5043081038B5CB6B002B50D00B78002B3FD00C460546D0F80423D2B20132896BFFF74AFC236C03442364E36B1B1AE36391
:40194000A26B1044A063802B06D9A3F18002802A0FD8A3F181040DE02B6E43F400432B66E36B0BB15C1E00E000240023C5F8C83F00E03F242B6813F4006F01D0802300E019
:4019800040239C4204D34FF42071104801F03CF8D5F8043323F0FF02E3B21343C5F8043338BD0123C3668A6B0B6CD0F84003D0540B6C01330B64CB6B013BCB6338BD022316
:4019C000C3660023C0F8C83F38BD00BF50430810F8B50B78012B03D00C7A1CB9002702E0002700E00127002800F0A780002900F0A680002A00F0A58016460C460546013BC9
:401A0000DBB2022B03D94F214F4800F0FDFF637803B163791BB150214B4800F0F5FF94F90330002B03DA5121474800F0EDFF237913F0010F03D05221434800F0E5FF236979
:401A4000102B03D95321404800F0DEFFE368102B03D954213C4800F0D7FF637913B14FF4803100E00021E27912B14FF4807300E000230B4343F400632B60A37913B94FF4DB
:401A8000006300E000232269013A02F00F021A43E368013B1B01DBB21343227843EA82732B6617B140F2073301E040F20713C5F800330FB1254B00E0254B2B6763780BB1CD
:401AC0007F2300E00023C5F80433E3785B00DBB2227943EA0243C5F810331E4BC5F80032A3780BB1402300E00123C5F804320023C5F8C83EC5F8883EC5F8C83FC5F8883FC3
:401B0000C5F8083F2378022B02D040F2D11300E00023C5F8483F63783370A37873704FF0805373600020B060B06130623064F0633063F0627064B064F8BD0748F8BD0648BB
:401B4000F8BD0548F8BD00BF9443081003002A0013102A00070101000120AA0038B505460C4621B940F2C321194800F04DFF2B6E9B0F012B17D1174B2344174A93421ED94E
:401B8000A4F5BD13A3F5D66302F5611202F56162934216D9A4F57104A4F533440F4B9C4211D80F4838BD84B1286EC0F303102B6E03F00F0318440230B4FBF0F038BD0948E6
:401BC00038BD094838BD002038BD002038BD00BF9443081020AD88FF405B730040555C0440420F00801A0600A08601002DE9F84307468846914622B940F21221624800F006
:401C000003FF08F1FF34614B9C4204D940F213215D4800F0F9FE3B6E9B0F012B0DD149463846FFF79BFF0546D7F8003323F40073C7F80033564B3B67A2E0544B9C421FD821
:401C4000544B984509D8A9F5BD13A3F5D663524A934218D90021012328E0504B984507D84F4B4B444F4A934213D9002101231DE04D4B4B444D4A934212D90021012315E045
:401C80000021012312E0002141F288352E460B460CE000214FF461754FF4C8660B4605E001214FF4BE754FF41B760023002B66D13F4BB3FBF9F3B6FBF3F404FB03F29642D1
:401CC00000D90134102C00D910240F2C8CBF00220122B5FBF3F606FB03F39D4200D90136102E00D91026A519B9FBF5F50FE022B10F2C09D80134002206E00F2E04D801362F
:401D00000F2C8CBF00220122A519B9FBF5F5454502D9A3191F2BEAD941B1D7F8003343F40073C7F80033234B3B6707E0D7F8003323F40073C7F80033154B3B67E31F092B11
:401D400004D940F283511C4800F05EFE3B6E23F0F003013C2401E4B223433B66731F0B2B04D94FF4B461144800F04EFE3B6E23F00F03013E06F00F061E433E6600E000256B
:401D80002846BDE8F88300BF944308103F420F0013102A00A0860100502D1900801A060020AD88FFA0432100807E25FFC02BAF0000CA9A3B03002A00D443081088687047F7
:401DC00070B5044615460E4621B940F2D341554800F01AFE73680BB1B36823B940F2D441504800F011FE96F90030002B04DA40F2D5414C4800F008FE0023C4F8483F6B68C1
:401E000013F0805F00F0888033785B00DBB243F001034FF48032AA6072682A61B2686A610022AA61EA61327B2A7301226A7340F21712C4F8002FD4F8002FD4F8042242F48A
:401E40008032C4F80422D4F8042222F48032C4F80422D4F804226A68B2F1805F04D1C4F840320223A36609E0626E12F0200F01D0092200E00122A266C4F840322B7843B303
:401E80002B7B33BB6B69012B23D9236E43F4807323666E69802E01D8023E00E03F26236813F4006F01D0802300E040239E4204D34FF420711C4800F0A7FDD4F8043323F01A
:401EC000FF03F6B21E43C4F804634FF490136B6015E0236813F4006F01D0802300E0402323B94FF42071104800F08EFDD4F8043323F0FF03C4F804334FF488136B6000F02F
:401F0000F0FD0123C4F8C83F40F21313C4F8083F00F0EBFD002000E0044840F2D113C4F8483F70BD94430810504308100220AA00F8B5044615460E4621B940F2B7514B4815
:401F400000F062FDB36833B1736823B94FF4B761464800F059FD96F90030002B04DA40F2B951424800F050FD0023C4F8483F6B6813F0805F73D037787F00FFB24FF480332F
:401F8000AB6073682B61B3686B610023AB61EB61327B2A736B7340F21713C4F8003FD4F8003FD4F8043243F48033C4F80432D4F8043223F48033C4F80432D4F804326B6852
:401FC000B3F1805F09D1C4F840724023C4F8803FD4F8803F0223A36617E0636E13F0200F01D0092300E00123A3666B695BB900F078FDC4F840724023C4F8803FD4F8803F57
:4020000000F073FD01E0C4F840724FF4A0136B606B780BB1402500E00125236813F4006F01D0802300E040239D4204D34FF43A710F4800F0E9FCD4F8043223F0FF032B4319
:40204000C4F8043200F04DFD0123C4F8883F40F21313C4F8083F00F048FD002000E0054840F2D113C4F8483FF8BD00BF94430810504308100220AA0070B504460E46D0F8F2
:402080008C3E13F0010F07D04FF480534B600123C0F8803ED0F8803ED4F84C5F40F201131D420FD0336A15F4807F02D04FF4807200E08022134333620023C4F8C83F45F05C
:4020C00010050EE015F0100F0BD0D4F80833C3F3080333B1F36B23B10123C4F8C43FC4F8C83FD4F8CC3F13F0010F08D031462046FFF710FC0123C4F8C03FD4F8C03F15F00A
:40210000100F0AD031462046FFF7D0F81023C4F8403FD4F8403FD4F84C5F15F0C00F0DD031462046FFF7D2FA0123C4F8803ED4F8803EC023C4F8403FD4F8403FD4F88C3F63
:4021400013F0410F08D031462046FFF7EFF90123C4F8803FD4F8803F70BD00BF70B506460D46D0F8004E14F0020F0AD0836E2BB1002383668B6843F080738B604FF4C013A7
:402180006B6014F0010F05D029463046FFF704F924F0040414F0080F08D029463046FFF741FB0123C6F8C03FD6F8C03F14F0040F08D029463046FFF72DFA0123C6F8803F2D
:4021C000D6F8803F6B68B3F5C01F03D129463046FFF732F96B68B3F5B01F03D129463046FFF714F970BD00BF08B54B6813F4801F02D0FFF7B3FF08BDFFF73EFF08BD00BF20
:402200002DE9F84305460C46036813F4006F02D04FF0800801E04FF04008D5F8007207F00F07A26A012A19D9D4F82490E262561EB9F1000F00D026B940F27351254800F066
:40224000E3FB324649462846FEF7FCFFA36A1B1AA362072F00D9400048446062D5F80832C3F30803984533D0A36A012B30D10023A362072F02D8636A1E7801E0636A1E8866
:4022800000F02FFCC5F840624FF40073C5F8803FD5F8803F00F029FCD5F8883F23F4007222F0010242F4007623F4EE6323F0030323B140F22A41084800F0A6FBC5F8886F6C
:4022C000236843F002032360236B0BB101209847BDE8F88314440810504308102DE9F04105460C46036813F4006F01D0802600E040267608A769D4F81C8017B1B8F1000F1B
:4023000004D14FF49961314800F07EFB424639462846FEF759FF236A03442362E3691B1AE36173BBA368FBB1E3689E4201D8013E00E05E1E2B6813F4006F01D0802300E0E8
:4023400040239E4204D34FF42071214800F05CFBD5F8043323F0FF03F6B21E43C5F804630123C5F8C83F02E00023C5F8C83F636823F001036360236B33B304209847BDE807
:40238000F081A169D5F8002302F00F02072A00D940000844A0619E4216D95C1E2B6813F4006F01D0802300E040239C4204D34FF42071074800F028FBD5F8043323F0FF020C
:4023C000E3B21343C5F80433BDE8F0811444081050430810002800F0A48170B50546002900F0A18116460C460B78022B03D93F21A24800F009FB637B023BDBB2062B03D9B8
:4024000040219E4800F000FBA37B3BB1022B05D0032B03D04121994800F0F6FA94F82130012B03D94221954800F0EEFA94F82830012B03D94321914800F0E6FA2378012B7D
:4024400006D86368083B082B94BF0023012307E0A37F2BB16368013B062B94BF002301231BB14521854800F0CFFAA368053B042B03D94621814800F0C7FA6369FF2B03D92B
:4024800047217E4800F0C0FAA369FF2B03D948217A4800F0B9FAA37C6BB1237833B9A368092B05D1A37B2BB1012304E0012302E0012300E000231BB14A21704800F0A4FAE1
:4024C000636B23F4366323F00D031BB14C216B4800F09AFAE36B23F4EE6323F003031BB14D21664800F090FA2378022B01D1A37F13B16268013A00E00022237F13B14FF46A
:40250000803100E00021A368082B02D84FF4006300E000230B4302F00F02134343F000732B60226B2B6813F4006F01D0802300E040239A4203D36221504800F065FAA26BDA
:402540002B6813F4006F01D0802300E040239A4203D36321494800F057FA626A2B6813F4006F01D0802300E040239A4203D36421424800F049FA23781B0603F040732B6422
:40258000637F0BB1402200E00022A37C13B14FF4806300E000231343227C12B14FF4807200E000221343627C12B14FF4007200E000221A43E36A013B1B0403F4702313438C
:4025C000627B013A02F007021343A27B120102F030021343AB64237B13B14FF4807200E00022E37B23B92378022B03D1012302E0012300E0002313B14FF4007300E00023A0
:402600001A43A368013B03F00F031343C5F80033227DA3691B0403F47F031343C5F81033E26AD5F8003303F00F0303339A4201D3102A03D97A21114800F0E6F9E37F23B1CC
:402640002378012B03D0002302E0002300E0012313B14FF4807200E00022637B013B03F007031A43A37B1B0103F0300313436B64237B2BB14FF4807203E000BF544408109F
:402680000022A368013B03F00F0313432278012A02D14FF4803200E000221343C5F8003294F83030C5F8043394F8203013B14FF0007200E0002294F82130012B02D14FF034
:4026C000807300E00023134394F82820012A02D14FF4803200E00022134394F8242013432B6594F83830C5F80432636B23F4926323F002031B051B0DC5F8C83FE36B23F073
:402700008C035B055B0DC5F8883F76B1002070603060B060F0603062F0623063044B736370BD04487047034870BD002070BD00BFEFCDAB000160AA000B694A69934202D324
:402740004869181A7047CA694869101A184470472DE9F04107460D46036813F4006F02D04FF0800801E04FF040084FEA5808D7F80863C6F308062C6926E00134EB689C423A
:4027800000D100246B699C420FD12B6B0BB1082098476B699C4208D10023C7F8C83F0CB1013C13E0EC68013C10E0D7F84023D7F8003303F00F03072B02D8AB681A5502E0AE
:4027C000AB6823F81420013E002ED6D12C61EC6829463846FFF7B0FF201A804519D908B1441E00E000243B6813F4006F01D0802300E040239C4204D34FF42071064800F049
:4028000003F9D7F8040320F0FF03E0B21843C7F80403BDE8F08100BF5043081038B504460D46D0F8003E13F0080F35D0D0F8CC3F13F448730AD04A681A434A60C0F8C03FF3
:40284000D0F8C03F0B6B0BB110209847D4F8CC3F13F4006F09D06B6843F400636B604FF40063C4F8C03FD4F8C03FD4F8CC3F13F0010F11D0EB6923B129462046FFF72EFDDD
:4028800005E0AB681BB129462046FFF761FF0123C4F8C03FD4F8C03FD4F8003E13F0040F2ED0D4F88C3F13F4A0630AD02A681A432A60C4F8803FD4F8803F2B6B0BB12020D5
:4028C0009847D4F88C3F13F0010F08D029462046FFF796FC0123C4F8803FD4F8803FD4F88C3F13F4007F0BD00022C4F8882F2B6823F001032B60EA622B6B0BB1022098478F
:4029000038BD00BF38B50D4B9A680D4B9A420FD10D46044621B940F237110A4800F074F804F11003064A52F8230042F8235038BD1030054B53F8200038BD00BF00ED00E006
:4029400000400208944408100000081048B338B504460D464368072B03D93221134800F053F8B4F900306268002B08DB5201D2B203F1604303F5614383F8002305E003F0A9
:402980000F035201D2B20A49CA540A4B9A680A4B9A4208D12946B4F90000FFF7B3FF002038BD06487047002038BD00BF9444081014ED00E000ED00E000400208010056006B
:4029C00010B5044605E0084B186800F081F8A4F50044B4F5004FF6D8044B186800FB04F000F076F810BD00BFA8420208A442020808B5034B1B7800FB03F000F069F808BDD6
:402A0000A042020801BEFEE738B50D46044C18220146204601F080F8A5610020FFF7F2FFB8480208FEE700BF08B50268254BDA6142681A6282685A62C2689A620269DA6200
:402A400042691A6382695A63C2699A631E4A916AD963D16A1964516A5964516B9964926BDA64F1EE103A13F0900F27D0026A154B1A65426A5A65826A9A65C26ADA65026B60
:402A80001A66426B5A66826B9A66C26BDA66026C1A67426C5A67826C9A67C26CDA67026DC3F88020426DC3F88420826DC3F88820C26DC3F88C20026EC3F89020FFF7B2FFD1
:402AC00008BD00BFB848020800ED00E0000000000230800803D001300238FCD100BF00BF7047EFF3108072B6704780F310887047014B1860704700BF644E02082DE9F84327
:402B00000E46074618B93A217548FFF77DFF1EB93B217348FFF778FF002F00F0DA80002E00F0DA8032686F4B13401BB14A216C48FFF76AFF72686C4B13401BB14B21684890
:402B4000FFF762FFB36813F0FC2F03D04C216448FFF75AFFF36813F0FC2F03D04D216048FFF752FF337D032B03D94E215C48FFF74BFFB369B3F5803F03D34F215848FFF755
:402B800043FFF36D072B03D950215548FFF73CFF336EB3F5803F03D351215148FFF734FF736EB3F5803F03D352214D48FFF72CFF736843F000437B60B3683B61F3687B61B3
:402BC0003369BB61337D9B07FB61B3693B62336803F46068736803F00409002435E02546A31D06EB83035A68404B13401BB163213B48FFF709FFAB1D06EB8303596805F13F
:402C0000200247F822105B6813F0012F0BD1B8F5606F08D1B9F1000F05D04FF47842344B23F8152003E00022314B23F81520726F02F11C7303F58033520093FBF2F31BB20F
:402C40002C4A42F825300134E4B20F2CC7D9F36DC7F81832F36DC7F81032336EC7F82832336EC7F82032736EC7F83832736EC7F8303296F87030DBB1B36EB3F1804F03D343
:402C800082211748FFF7C0FEF36E23F44F0323F0FF031BB183211248FFF7B6FE6FF04043C7F80433B36EC7F80033F36EC7F84433D7F8003F3F2B02D0D7F8003F13B90B2337
:402CC000C7F8003F336843F400133B600020BDE8F8830948BDE8F8830748BDE8F88300BF484608100811DF0001FE302088CA887E684E0208884E02080100060038B50D464B
:402D0000044618B9B5211748FFF77EFE2CB30023236063604FF0031222616261A361E361236206E003F12002002144F822100133DBB20F2BF6D90023C4F81832C4F828328E
:402D4000C4F838325DB16FF04043C4F804330020C4F84003C4F8440338BD034838BD002038BD00BF484608100100060008B50368002B0ADBD0F8A032002BFBDB036843F001
:402D8000004303600220FFF733FE08BD38B505460C46012904D940F271110648FFF734FE012C04D16B6843F480336B6038BD01236B6238BD4846081038B505460C460F29D7
:402DC00004D94FF415710848FFF71EFE0F2C07D8203455F8243013F0012F03D0002038BD002038BD012038BD4846081038B505460C460F2904D940F222211048FFF704FE6C
:402E00000F2C14D821462846FFF7D6FF80F0010010F0FF0F05D06B6813F0080F09D1002038BD6B6813F0040F05D1002038BD002038BD012038BD012038BD00BF4846081021
:402E400038B505460C460F2904D940F27B210648FFF7DAFD0F2C04D8603455F8240080B200E0002000B238BD48460810F8B506460C4615460F2904D940F27B311948FFF73F
:402E8000C3FD0F2C2BD8736813F0800F22D104F1200356F8233013F4806F1BD07768C7F302170137012303FA07F7736813F4807F02D1102F00D9102721463046FFF796FFA6
:402EC00020B9ADB2B5FBF7F52DB203E03FB295FBF7F52DB2044B33F81430ED1A2DB22846F8BD00BF48460810684E020870B505460C4616460F2904D940F21F411648FFF7EB
:402F000083FD0F2C23D86B6813F0020F21D1324621462846FFF7AAFF42F2107303FB00F2002807DD0D4B53F8240000EBD07002EB600306E0094B53F8240000EBD070A2EBC0
:402F40006003064A52F8240093FBF0F002E0002000E0002000B270BD48460810884E020870B5064614461D4621B140F29E410E48FFF74AFDB4F1804F04D340F29F410A4808
:402F8000FFF742FD012D04D94FF494610648FFF73BFD012D05D1D6F800331C43C6F8004370BDC6F8044370BD4846081070B504460D46164621F44F0323F0FF0323B140F213
:402FC000ED410C48FFF720FD012E04D940F2EE410848FFF719FD012E05D1D4F844331D43C4F8445370BDD4F8443323EA0505C4F8445370BD4846081070B539B900240AE0A6
:4030000015F8010BFDF760FC013402E016460D460024B442F4DB204670BD00BF70B561B900240FE0FDF75CFCC0B2287001340A2808D00D2806D0013502E016460D46002449
:40304000B442EFDB204670BD38B50446264B1A68916892F8703003F00203DBB243F08043C1F800340369FF2B0AD89168B2F874200A44916821F47F411B029BB20B439360D2
:40308000194B1A68906892F87310032303FA01F592F8703092F8721003FA01F1294303F002030B4343F00043C0F800349368D3F800340E4D00212846FFF720FEA168284664
:4030C000FFF71CFD01234FF4803200212846FFF747FF6368012B05D901224FF480312846FFF764FF38BD00BF644E020800001D4108B5084B1B7963B907490848FFF726FCE4
:40310000044B5B792BB90122024B5A710448FFF79BFF08BD704B020851310810DC410810C046081008B5084B1B7913F0010F06D1FFF7DEFF044A137943F0010313710348B9
:40314000FFF714FE08BD00BF704B020800001D4110B5094BD3F81042072C04D940F231610648FFF751FC044BC3F81042D3F81022D3F8103210BD00BF00001D4184460810D3
:4031800081F0004102E000BF83F0004330B54FEA41044FEA430594EA050F08BF90EA020F1FBF54EA000C55EA020C7FEA645C7FEA655C00F0E2804FEA5454D4EB5555B8BF63
:4031C0006D420CDD2C4480EA020281EA030382EA000083EA010180EA020281EA0303362D88BF30BD11F0004F4FEA01314FF4801C4CEA113102D0404261EB410113F0004F51
:403200004FEA03334CEA133302D0524263EB430394EA050F00F0A780A4F10104D5F1200E0DDB02FA0EFC22FA05F2801841F1000103FA0EF2801843FA05F359410EE0A5F1BE
:4032400020050EF1200E012A03FA0EFC28BF4CF0020C43FA05F3C01851EBE37101F0004507D54FF0000EDCF1000C7EEB00006EEB0101B1F5801F1BD3B1F5001F0CD34908D8
:403280005FEA30004FEA3C0C04F101044FEA445212F5800F80F09A80BCF1004F08BF5FEA500C50F1000041EB045141EA050130BD5FEA4C0C404141EB010111F4801FA4F15A
:4032C0000104E9D191F0000F04BF01460020B1FA81F308BF2033A3F10B03B3F120020CDA0C3208DD02F1140CC2F10C0201FA0CF021FA02F10CE002F11402D8BFC2F1200C67
:4033000001FA02F120FA0CFCDCBF41EA0C019040E41AA2BF01EB0451294330BD6FEA04041F3C1CDA0C340EDC04F11404C4F1200220FA04F001FA02F340EA030021FA04F3E4
:4033400045EA030130BDC4F10C04C4F1200220FA02F001FA04F340EA0300294630BD21FA04F0294630BD94F0000F83F4801306BF81F480110134013D4EE77FEA645C18BF8F
:403380007FEA655C29D094EA050F08BF90EA020F05D054EA000C04BF1946104630BD91EA030F1EBF0021002030BD5FEA545C05D14000494128BF41F0004130BD14F580047E
:4033C0003CBF01F5801130BD01F0004545F0FE4141F470014FF0000030BD7FEA645C1ABF194610467FEA655C1CBF0B46024650EA013406BF52EA033591EA030F41F4002102
:4034000030BD00BF90F0000F04BF0021704730B54FF4806404F132044FF000054FF0000150E700BF90F0000F04BF0021704730B54FF4806404F1320410F0004548BF4042D6
:403440004FF000013EE700BF42004FEAE2014FEA31014FEA02701FBF12F07F4393F07F4F81F06051704792F0000F14BF93F07F4F704730B54FF4607401F0004521F00041F8
:4034800020E700BF50EA010208BF704730B54FF000050AE050EA010208BF704730B511F0004502D5404261EB41014FF4806404F132045FEA915C3FF4DCAE4FF003025FEAD9
:4034C000DC0C18BF03325FEADC0C18BF033202EBDC02C2F1200300FA03FC20FA02F001FA03FE40EA0E0021FA02F11444C1E600BF70B54FF0FF0C4CF4E06C1CEA11541DBFB3
:403500001CEA135594EA0C0F95EA0C0F00F0DEF82C4481EA030621EA4C5123EA4C5350EA013518BF52EA033541F4801143F4801338D0A0FB02CE4FF00005E1FB02E506F031
:403540000042E0FB03E54FF00006E1FB03569CF0000F18BF4EF0010EA4F1FF04B6F5007F64F5407404D25FEA4E0E6D4146EB060642EAC62141EA55514FEAC52040EA5E50FE
:403580004FEACE2EB4F1FD0C88BFBCF5E06F1ED8BEF1004F08BF5FEA500E50F1000041EB045170BD06F0004646EA010140EA020081EA0301B4EB5C04C2BFD4EB0C0541EA0C
:4035C000045170BD41F480114FF0000E013C00F3AB8014F1360FDEBF002001F0004170BDC4F10004203C35DA0C341BDC04F11404C4F1200500FA05F320FA04F001FA05F241
:4036000040EA020001F0004221F0004110EBD37021FA04F642EB06015EEA430E08BF20EAD37070BDC4F10C04C4F1200500FA04F320FA05F001FA04F240EA020001F000418A
:4036400010EBD37041F100015EEA430E08BF20EAD37070BDC4F1200500FA05F24EEA020E20FA04F301FA05F243EA020321FA04F001F0004121FA04F220EA020000EBD3702B
:403680005EEA430E08BF20EAD37070BD94F0000F0FD101F00046400041EB010111F4801F08BF013CF7D041EA060195F0000F18BF704703F00046520043EB030313F4801FF0
:4036C00008BF013DF7D043EA0603704794EA0C0F0CEA135518BF95EA0C0F0CD050EA410618BF52EA4306D1D181EA030101F000414FF0000070BD50EA410606BF1046194646
:4037000052EA430619D094EA0C0F02D150EA013613D195EA0C0F05D152EA03361CBF104619460AD181EA030101F0004141F0FE4141F470014FF0000070BD41F0FE4141F442
:40374000780170BD70B54FF0FF0C4CF4E06C1CEA11541DBF1CEA135594EA0C0F95EA0C0F00F0A7F8A4EB050481EA030E52EA03354FEA013100F088804FEA03334FF08055C3
:4037800045EA131343EA12634FEA022245EA111545EA10654FEA00260EF000419D4208BF964244F1FD0404F5407402D25B084FEA3202B61A65EB03055B084FEA32024FF4DE
:4037C00080104FF4002CB6EB020E75EB030E22BFB61A754640EA0C005B084FEA3202B6EB020E75EB030E22BFB61A754640EA5C005B084FEA3202B6EB020E75EB030E22BF4F
:40380000B61A754640EA9C005B084FEA3202B6EB020E75EB030E22BFB61A754640EADC0055EA060E18D04FEA051545EA16754FEA06164FEAC30343EA52734FEAC2025FEAFF
:403840001C1CC0D111F4801F0BD141EA00014FF000004FF0004CB6E711F4801F04BF01430020B4F1FD0C88BFBCF5E06F3FF6AFAEB5EB030C04BFB6EB020C5FEA500C50F113
:40388000000041EB045170BD0EF0004E4EEA113114EB5C04C2BFD4EB0C0541EA045170BD41F480114FF0000E013C90E645EA060E8DE60CEA135594EA0C0F08BF95EA0C0F63
:4038C0003FF43BAF94EA0C0F0AD150EA01347FF434AF95EA0C0F7FF425AF104619462CE795EA0C0F06D152EA03353FF4FDAE1046194622E750EA410618BF52EA43067FF4F8
:40390000C5AE50EA41047FF40DAF52EA43057FF4EBAE12E74FEA4102B2F1E04324BFB3F5001CDCF1FE5C0DD901F0004C4FEAC0024CEA5070B2F1004F40EB830008BF20F042
:403940000100704711F0804F21D113F13872BCBF01F00040704741F480114FEA5252C2F11802C2F1200C10FA0CF320FA02F018BF40F001004FEAC1234FEAD32303FA0CFCFF
:4039800040EA0C0023FA02F34FEA4303CCE77FEA625307D150EA01331EBF4FF0FE4040F44000704701F0004040F0FE4040F40000704700BF02440346934202D003F8011B0E
:4039C000FAE770472DE9F7431D464F4B1E6804460F46904626B1B36913B9304600F0A2F94A4B9C4201D1746808E0494B9C4201D1B46803E0474B9C4208BFF468B8F1020F8E
:403A000004D0B8F1010F79D8002D77DB2146304600F01EF9616B41B104F14403994202D0304600F035FA002363630023A3616360A3891B0603D52169304600F029FAA389D2
:403A400023F44A6323F00303B8F1020FA3811ED001AB6A462146304600F0EEF9A3891843A0810DB9009D00E02FBB284600F008FA0746D0B9DDF80090A94502D14FF0FF30EE
:403A800006E0484600F0FCF9074678B9F6E70020A38943F00203A3810023A36004F1470323602361012363612AE0A946A38943F08003A3814D46B36913B9304600F032F94B
:403AC000B8F1010F08BFA389276004BF43F00103A381A389276103F0080080B2656158B113F001034FF000001DBF6D42A060A561A56008BF184603E0A06001E04FF0FF3092
:403B000003B0BDE8F08300BF0C43020854470810744708109447081010B5034642B111F8014B03F8014B013A002CF7D11A4400E010BD934202D003F8014BFAE710BD0000B6
:403B40008A892DE9F041054610070C4659D44B68002B02DC0B6C002B17DDE66AAEB102F48052002392B22F682B600AB1606D15E0216A01232846B047411C0FD12B686BB13B
:403B80001D2B01D0162B03D12F600020BDE8F081A38943F04003A381BDE8F081A3895A0705D56368C01A636B0BB1236CC01A00230246E66A216A2846B047431CA38906D12A
:403BC00029681D293AD8214ACA40D60736D500226260D9042269226004D5421C01D12B6803B96065616B2F600029CED004F14403994202D0284600F04BF900206063BDE85F
